{
  "_format": "hh-sol-artifact-1",
  "contractName": "NFTMarketPlace",
  "sourceName": "contracts/NFTMarketPlace.sol",
  "abi": [
    {
      "inputs": [],
      "stateMutability": "nonpayable",
      "type": "constructor"
    },
    {
      "inputs": [],
      "name": "ErrAuctionEndTimeWrong",
      "type": "error"
    },
    {
      "inputs": [],
      "name": "ErrAuctionEnded",
      "type": "error"
    },
    {
      "inputs": [],
      "name": "ErrHasNotAuctionEnded",
      "type": "error"
    },
    {
      "inputs": [],
      "name": "ErrInvalidBid",
      "type": "error"
    },
    {
      "inputs": [],
      "name": "ErrInvalidCaller",
      "type": "error"
    },
    {
      "inputs": [],
      "name": "ErrItemIsAuction",
      "type": "error"
    },
    {
      "inputs": [],
      "name": "ErrItemListed",
      "type": "error"
    },
    {
      "inputs": [],
      "name": "ErrItemNotListed",
      "type": "error"
    },
    {
      "inputs": [],
      "name": "ErrListingFee",
      "type": "error"
    },
    {
      "inputs": [],
      "name": "ErrPriceNotEqual",
      "type": "error"
    },
    {
      "inputs": [],
      "name": "ErrPriceZero",
      "type": "error"
    },
    {
      "anonymous": false,
      "inputs": [
        {
          "indexed": true,
          "internalType": "address",
          "name": "owner",
          "type": "address"
        },
        {
          "indexed": true,
          "internalType": "address",
          "name": "approved",
          "type": "address"
        },
        {
          "indexed": true,
          "internalType": "uint256",
          "name": "tokenId",
          "type": "uint256"
        }
      ],
      "name": "Approval",
      "type": "event"
    },
    {
      "anonymous": false,
      "inputs": [
        {
          "indexed": true,
          "internalType": "address",
          "name": "owner",
          "type": "address"
        },
        {
          "indexed": true,
          "internalType": "address",
          "name": "operator",
          "type": "address"
        },
        {
          "indexed": false,
          "internalType": "bool",
          "name": "approved",
          "type": "bool"
        }
      ],
      "name": "ApprovalForAll",
      "type": "event"
    },
    {
      "anonymous": false,
      "inputs": [
        {
          "indexed": false,
          "internalType": "uint256",
          "name": "_fromTokenId",
          "type": "uint256"
        },
        {
          "indexed": false,
          "internalType": "uint256",
          "name": "_toTokenId",
          "type": "uint256"
        }
      ],
      "name": "BatchMetadataUpdate",
      "type": "event"
    },
    {
      "anonymous": false,
      "inputs": [
        {
          "indexed": false,
          "internalType": "uint256",
          "name": "_tokenId",
          "type": "uint256"
        }
      ],
      "name": "MetadataUpdate",
      "type": "event"
    },
    {
      "anonymous": false,
      "inputs": [
        {
          "indexed": true,
          "internalType": "address",
          "name": "previousOwner",
          "type": "address"
        },
        {
          "indexed": true,
          "internalType": "address",
          "name": "newOwner",
          "type": "address"
        }
      ],
      "name": "OwnershipTransferred",
      "type": "event"
    },
    {
      "anonymous": false,
      "inputs": [
        {
          "indexed": true,
          "internalType": "address",
          "name": "from",
          "type": "address"
        },
        {
          "indexed": true,
          "internalType": "address",
          "name": "to",
          "type": "address"
        },
        {
          "indexed": true,
          "internalType": "uint256",
          "name": "tokenId",
          "type": "uint256"
        }
      ],
      "name": "Transfer",
      "type": "event"
    },
    {
      "inputs": [
        {
          "internalType": "address",
          "name": "to",
          "type": "address"
        },
        {
          "internalType": "uint256",
          "name": "tokenId",
          "type": "uint256"
        }
      ],
      "name": "approve",
      "outputs": [],
      "stateMutability": "nonpayable",
      "type": "function"
    },
    {
      "inputs": [
        {
          "internalType": "address",
          "name": "owner",
          "type": "address"
        }
      ],
      "name": "balanceOf",
      "outputs": [
        {
          "internalType": "uint256",
          "name": "",
          "type": "uint256"
        }
      ],
      "stateMutability": "view",
      "type": "function"
    },
    {
      "inputs": [
        {
          "internalType": "uint256",
          "name": "_itemId",
          "type": "uint256"
        }
      ],
      "name": "buyNftItem",
      "outputs": [],
      "stateMutability": "payable",
      "type": "function"
    },
    {
      "inputs": [
        {
          "internalType": "string",
          "name": "_tokenURI",
          "type": "string"
        },
        {
          "internalType": "uint256",
          "name": "price",
          "type": "uint256"
        },
        {
          "internalType": "bool",
          "name": "_listed",
          "type": "bool"
        },
        {
          "internalType": "bool",
          "name": "_auction",
          "type": "bool"
        },
        {
          "internalType": "uint256",
          "name": "_auctionEndTime",
          "type": "uint256"
        }
      ],
      "name": "createNftToken",
      "outputs": [
        {
          "internalType": "uint256",
          "name": "",
          "type": "uint256"
        }
      ],
      "stateMutability": "payable",
      "type": "function"
    },
    {
      "inputs": [
        {
          "internalType": "uint256",
          "name": "_itemsId",
          "type": "uint256"
        }
      ],
      "name": "endAuction",
      "outputs": [],
      "stateMutability": "payable",
      "type": "function"
    },
    {
      "inputs": [],
      "name": "feeNumerator",
      "outputs": [
        {
          "internalType": "uint96",
          "name": "",
          "type": "uint96"
        }
      ],
      "stateMutability": "view",
      "type": "function"
    },
    {
      "inputs": [],
      "name": "fetchMarketNftItems",
      "outputs": [
        {
          "components": [
            {
              "internalType": "address payable",
              "name": "nftOwner",
              "type": "address"
            },
            {
              "internalType": "uint256",
              "name": "price",
              "type": "uint256"
            },
            {
              "internalType": "bool",
              "name": "listed",
              "type": "bool"
            },
            {
              "internalType": "bool",
              "name": "auction",
              "type": "bool"
            },
            {
              "internalType": "uint256",
              "name": "auctionEndTime",
              "type": "uint256"
            },
            {
              "internalType": "address payable",
              "name": "highestBidder",
              "type": "address"
            },
            {
              "internalType": "uint256",
              "name": "highestBid",
              "type": "uint256"
            },
            {
              "internalType": "uint256",
              "name": "itemId",
              "type": "uint256"
            },
            {
              "internalType": "uint256",
              "name": "tokenId",
              "type": "uint256"
            }
          ],
          "internalType": "struct DataTypes.MarketItem[]",
          "name": "",
          "type": "tuple[]"
        }
      ],
      "stateMutability": "view",
      "type": "function"
    },
    {
      "inputs": [],
      "name": "fetchMyNfts",
      "outputs": [
        {
          "components": [
            {
              "internalType": "address payable",
              "name": "nftOwner",
              "type": "address"
            },
            {
              "internalType": "uint256",
              "name": "price",
              "type": "uint256"
            },
            {
              "internalType": "bool",
              "name": "listed",
              "type": "bool"
            },
            {
              "internalType": "bool",
              "name": "auction",
              "type": "bool"
            },
            {
              "internalType": "uint256",
              "name": "auctionEndTime",
              "type": "uint256"
            },
            {
              "internalType": "address payable",
              "name": "highestBidder",
              "type": "address"
            },
            {
              "internalType": "uint256",
              "name": "highestBid",
              "type": "uint256"
            },
            {
              "internalType": "uint256",
              "name": "itemId",
              "type": "uint256"
            },
            {
              "internalType": "uint256",
              "name": "tokenId",
              "type": "uint256"
            }
          ],
          "internalType": "struct DataTypes.MarketItem[]",
          "name": "",
          "type": "tuple[]"
        }
      ],
      "stateMutability": "view",
      "type": "function"
    },
    {
      "inputs": [
        {
          "internalType": "uint256",
          "name": "tokenId",
          "type": "uint256"
        }
      ],
      "name": "getApproved",
      "outputs": [
        {
          "internalType": "address",
          "name": "",
          "type": "address"
        }
      ],
      "stateMutability": "view",
      "type": "function"
    },
    {
      "inputs": [],
      "name": "getListingPriceFee",
      "outputs": [
        {
          "internalType": "uint256",
          "name": "",
          "type": "uint256"
        }
      ],
      "stateMutability": "view",
      "type": "function"
    },
    {
      "inputs": [
        {
          "internalType": "address",
          "name": "owner",
          "type": "address"
        },
        {
          "internalType": "address",
          "name": "operator",
          "type": "address"
        }
      ],
      "name": "isApprovedForAll",
      "outputs": [
        {
          "internalType": "bool",
          "name": "",
          "type": "bool"
        }
      ],
      "stateMutability": "view",
      "type": "function"
    },
    {
      "inputs": [],
      "name": "listingFee",
      "outputs": [
        {
          "internalType": "uint256",
          "name": "",
          "type": "uint256"
        }
      ],
      "stateMutability": "view",
      "type": "function"
    },
    {
      "inputs": [],
      "name": "name",
      "outputs": [
        {
          "internalType": "string",
          "name": "",
          "type": "string"
        }
      ],
      "stateMutability": "view",
      "type": "function"
    },
    {
      "inputs": [
        {
          "internalType": "uint256",
          "name": "",
          "type": "uint256"
        }
      ],
      "name": "nfts",
      "outputs": [
        {
          "internalType": "address payable",
          "name": "nftOwner",
          "type": "address"
        },
        {
          "internalType": "uint256",
          "name": "price",
          "type": "uint256"
        },
        {
          "internalType": "bool",
          "name": "listed",
          "type": "bool"
        },
        {
          "internalType": "bool",
          "name": "auction",
          "type": "bool"
        },
        {
          "internalType": "uint256",
          "name": "auctionEndTime",
          "type": "uint256"
        },
        {
          "internalType": "address payable",
          "name": "highestBidder",
          "type": "address"
        },
        {
          "internalType": "uint256",
          "name": "highestBid",
          "type": "uint256"
        },
        {
          "internalType": "uint256",
          "name": "itemId",
          "type": "uint256"
        },
        {
          "internalType": "uint256",
          "name": "tokenId",
          "type": "uint256"
        }
      ],
      "stateMutability": "view",
      "type": "function"
    },
    {
      "inputs": [],
      "name": "owner",
      "outputs": [
        {
          "internalType": "address",
          "name": "",
          "type": "address"
        }
      ],
      "stateMutability": "view",
      "type": "function"
    },
    {
      "inputs": [
        {
          "internalType": "uint256",
          "name": "tokenId",
          "type": "uint256"
        }
      ],
      "name": "ownerOf",
      "outputs": [
        {
          "internalType": "address",
          "name": "",
          "type": "address"
        }
      ],
      "stateMutability": "view",
      "type": "function"
    },
    {
      "inputs": [
        {
          "internalType": "uint256",
          "name": "_itemsId",
          "type": "uint256"
        }
      ],
      "name": "placeBid",
      "outputs": [],
      "stateMutability": "payable",
      "type": "function"
    },
    {
      "inputs": [],
      "name": "renounceOwnership",
      "outputs": [],
      "stateMutability": "nonpayable",
      "type": "function"
    },
    {
      "inputs": [
        {
          "internalType": "uint256",
          "name": "_itemId",
          "type": "uint256"
        },
        {
          "internalType": "uint256",
          "name": "_price",
          "type": "uint256"
        },
        {
          "internalType": "bool",
          "name": "_listed",
          "type": "bool"
        },
        {
          "internalType": "bool",
          "name": "_auction",
          "type": "bool"
        },
        {
          "internalType": "uint256",
          "name": "_auctionEndTime",
          "type": "uint256"
        }
      ],
      "name": "resellNftItem",
      "outputs": [],
      "stateMutability": "payable",
      "type": "function"
    },
    {
      "inputs": [
        {
          "internalType": "uint256",
          "name": "tokenId",
          "type": "uint256"
        },
        {
          "internalType": "uint256",
          "name": "salePrice",
          "type": "uint256"
        }
      ],
      "name": "royaltyInfo",
      "outputs": [
        {
          "internalType": "address",
          "name": "",
          "type": "address"
        },
        {
          "internalType": "uint256",
          "name": "",
          "type": "uint256"
        }
      ],
      "stateMutability": "view",
      "type": "function"
    },
    {
      "inputs": [
        {
          "internalType": "address",
          "name": "from",
          "type": "address"
        },
        {
          "internalType": "address",
          "name": "to",
          "type": "address"
        },
        {
          "internalType": "uint256",
          "name": "tokenId",
          "type": "uint256"
        }
      ],
      "name": "safeTransferFrom",
      "outputs": [],
      "stateMutability": "nonpayable",
      "type": "function"
    },
    {
      "inputs": [
        {
          "internalType": "address",
          "name": "from",
          "type": "address"
        },
        {
          "internalType": "address",
          "name": "to",
          "type": "address"
        },
        {
          "internalType": "uint256",
          "name": "tokenId",
          "type": "uint256"
        },
        {
          "internalType": "bytes",
          "name": "data",
          "type": "bytes"
        }
      ],
      "name": "safeTransferFrom",
      "outputs": [],
      "stateMutability": "nonpayable",
      "type": "function"
    },
    {
      "inputs": [
        {
          "internalType": "address",
          "name": "operator",
          "type": "address"
        },
        {
          "internalType": "bool",
          "name": "approved",
          "type": "bool"
        }
      ],
      "name": "setApprovalForAll",
      "outputs": [],
      "stateMutability": "nonpayable",
      "type": "function"
    },
    {
      "inputs": [
        {
          "internalType": "uint96",
          "name": "_feeNumerator",
          "type": "uint96"
        }
      ],
      "name": "setRoyaltyFee",
      "outputs": [],
      "stateMutability": "nonpayable",
      "type": "function"
    },
    {
      "inputs": [
        {
          "internalType": "bytes4",
          "name": "interfaceId",
          "type": "bytes4"
        }
      ],
      "name": "supportsInterface",
      "outputs": [
        {
          "internalType": "bool",
          "name": "",
          "type": "bool"
        }
      ],
      "stateMutability": "view",
      "type": "function"
    },
    {
      "inputs": [],
      "name": "symbol",
      "outputs": [
        {
          "internalType": "string",
          "name": "",
          "type": "string"
        }
      ],
      "stateMutability": "view",
      "type": "function"
    },
    {
      "inputs": [
        {
          "internalType": "uint256",
          "name": "tokenId",
          "type": "uint256"
        }
      ],
      "name": "tokenURI",
      "outputs": [
        {
          "internalType": "string",
          "name": "",
          "type": "string"
        }
      ],
      "stateMutability": "view",
      "type": "function"
    },
    {
      "inputs": [
        {
          "internalType": "address",
          "name": "from",
          "type": "address"
        },
        {
          "internalType": "address",
          "name": "to",
          "type": "address"
        },
        {
          "internalType": "uint256",
          "name": "tokenId",
          "type": "uint256"
        }
      ],
      "name": "transferFrom",
      "outputs": [],
      "stateMutability": "nonpayable",
      "type": "function"
    },
    {
      "inputs": [
        {
          "internalType": "address",
          "name": "newOwner",
          "type": "address"
        }
      ],
      "name": "transferOwnership",
      "outputs": [],
      "stateMutability": "nonpayable",
      "type": "function"
    },
    {
      "inputs": [
        {
          "internalType": "uint256",
          "name": "_listingFee",
          "type": "uint256"
        }
      ],
      "name": "updateListingFee",
      "outputs": [],
      "stateMutability": "nonpayable",
      "type": "function"
    }
  ],
  "bytecode": "0x6080604052662386f26fc10000600e55600f80546001600160601b03191660051790553480156200002f57600080fd5b50604051806040016040528060078152602001664e46542042617960c81b8152506040518060400160405280600481526020016327232a2160e11b81525081600290816200007e9190620001b0565b5060036200008d8282620001b0565b505050620000aa620000a4620000b560201b60201c565b620000b9565b6001600a556200027c565b3390565b600980546001600160a01b038381166001600160a01b0319831681179093556040519116919082907f8be0079c531659141344cd1fd0a4f28419497f9722a3daafe3b4186f6b6457e090600090a35050565b634e487b7160e01b600052604160045260246000fd5b600181811c908216806200013657607f821691505b6020821081036200015757634e487b7160e01b600052602260045260246000fd5b50919050565b601f821115620001ab57600081815260208120601f850160051c81016020861015620001865750805b601f850160051c820191505b81811015620001a75782815560010162000192565b5050505b505050565b81516001600160401b03811115620001cc57620001cc6200010b565b620001e481620001dd845462000121565b846200015d565b602080601f8311600181146200021c5760008415620002035750858301515b600019600386901b1c1916600185901b178555620001a7565b600085815260208120601f198616915b828110156200024d578886015182559484019460019091019084016200022c565b50858210156200026c5787850151600019600388901b60f8161c191681555b5050505050600190811b01905550565b613090806200028c6000396000f3fe6080604052600436106101cd5760003560e01c806370a08231116100f7578063b88d4fde11610095578063e86dea4a11610064578063e86dea4a146105a8578063e985e9c5146105e0578063f2fde38b14610600578063f79d91ae1461062057600080fd5b8063b88d4fde14610542578063b9a2de3a14610562578063bf4a9af314610575578063c87b56dd1461058857600080fd5b806395d89b41116100d157806395d89b41146104e75780639979ef45146104fc578063a22cb4651461050f578063aff030ec1461052f57600080fd5b806370a0823114610494578063715018a6146104b45780638da5cb5b146104c957600080fd5b8063265aa6211161016f5780634cca8ee91161013e5780634cca8ee9146104345780635e2ea26d146104495780636352211e1461045e5780636a1b7ecc1461047e57600080fd5b8063265aa621146102e65780632a55205a146103b557806331faafb4146103f457806342842e0e1461041457600080fd5b8063095ea7b3116101ab578063095ea7b314610261578063128ae712146102835780631f4fd0be146102a557806323b872dd146102c657600080fd5b806301ffc9a7146101d257806306fdde0314610207578063081812fc14610229575b600080fd5b3480156101de57600080fd5b506101f26101ed366004612887565b610640565b60405190151581526020015b60405180910390f35b34801561021357600080fd5b5061021c610651565b6040516101fe91906128f4565b34801561023557600080fd5b50610249610244366004612907565b6106e3565b6040516001600160a01b0390911681526020016101fe565b34801561026d57600080fd5b5061028161027c36600461293c565b61070a565b005b34801561028f57600080fd5b50610298610824565b6040516101fe9190612966565b6102b86102b3366004612a20565b610a0f565b6040519081526020016101fe565b3480156102d257600080fd5b506102816102e1366004612ac2565b610aa7565b3480156102f257600080fd5b50610358610301366004612907565b601060205260009081526040902080546001820154600283015460038401546004850154600586015460068701546007909701546001600160a01b0396871697959660ff8087169761010090970416959316929089565b604080516001600160a01b039a8b1681526020810199909952961515968801969096529315156060870152608086019290925290941660a084015260c083019390935260e0820192909252610100810191909152610120016101fe565b3480156103c157600080fd5b506103d56103d0366004612afe565b610ad8565b604080516001600160a01b0390931683526020830191909152016101fe565b34801561040057600080fd5b5061028161040f366004612b20565b610b84565b34801561042057600080fd5b5061028161042f366004612ac2565b610bb3565b34801561044057600080fd5b50610298610bce565b34801561045557600080fd5b50600e546102b8565b34801561046a57600080fd5b50610249610479366004612907565b610da3565b34801561048a57600080fd5b506102b8600e5481565b3480156104a057600080fd5b506102b86104af366004612b49565b610e03565b3480156104c057600080fd5b50610281610e89565b3480156104d557600080fd5b506009546001600160a01b0316610249565b3480156104f357600080fd5b5061021c610e9d565b61028161050a366004612907565b610eac565b34801561051b57600080fd5b5061028161052a366004612b64565b611067565b61028161053d366004612b97565b611076565b34801561054e57600080fd5b5061028161055d366004612bfb565b61123c565b610281610570366004612907565b611274565b610281610583366004612907565b611543565b34801561059457600080fd5b5061021c6105a3366004612907565b6117d7565b3480156105b457600080fd5b50600f546105c8906001600160601b031681565b6040516001600160601b0390911681526020016101fe565b3480156105ec57600080fd5b506101f26105fb366004612cd7565b6117e2565b34801561060c57600080fd5b5061028161061b366004612b49565b611810565b34801561062c57600080fd5b5061028161063b366004612907565b611886565b600061064b82611893565b92915050565b60606002805461066090612d01565b80601f016020809104026020016040519081016040528092919081815260200182805461068c90612d01565b80156106d95780601f106106ae576101008083540402835291602001916106d9565b820191906000526020600020905b8154815290600101906020018083116106bc57829003601f168201915b5050505050905090565b60006106ee8261189e565b506000908152600660205260409020546001600160a01b031690565b600061071582610da3565b9050806001600160a01b0316836001600160a01b0316036107875760405162461bcd60e51b815260206004820152602160248201527f4552433732313a20617070726f76616c20746f2063757272656e74206f776e656044820152603960f91b60648201526084015b60405180910390fd5b336001600160a01b03821614806107a357506107a381336117e2565b6108155760405162461bcd60e51b815260206004820152603d60248201527f4552433732313a20617070726f76652063616c6c6572206973206e6f7420746f60448201527f6b656e206f776e6572206f7220617070726f76656420666f7220616c6c000000606482015260840161077e565b61081f83836118fd565b505050565b60606000610831600c5490565b905060008060005b83811015610890573360106000610851846001612d51565b81526020810191909152604001600020546001600160a01b03160361087e5761087b600184612d51565b92505b8061088881612d64565b915050610839565b5060008267ffffffffffffffff8111156108ac576108ac612be5565b6040519080825280602002602001820160405280156108e557816020015b6108d261280f565b8152602001906001900390816108ca5790505b50905060005b83811015610a06573360106000610903846001612d51565b81526020810191909152604001600020546001600160a01b0316036109f457600061092f826001612d51565b60008181526010602090815260409182902082516101208101845281546001600160a01b039081168252600183015493820193909352600282015460ff808216151595830195909552610100908190049094161515606082015260038201546080820152600482015490921660a0830152600581015460c0830152600681015460e0830152600701549181019190915284519192509081908590879081106109d9576109d9612d7d565b60209081029190910101526109ef600186612d51565b945050505b806109fe81612d64565b9150506108eb565b50949350505050565b6000610a1f600b80546001019055565b6000610a2a600b5490565b9050610a36338261196b565b610a768189898080601f01602080910402602001604051908101604052809392919081815260200183838082843760009201919091525061198592505050565b600f54610a8f90829033906001600160601b0316611a50565b610a9c8682878787611b5e565b979650505050505050565b610ab13382611daf565b610acd5760405162461bcd60e51b815260040161077e90612d93565b61081f838383611e0e565b60008281526001602090815260408083208151808301909252546001600160a01b038116808352600160a01b9091046001600160601b0316928201929092528291610b4d5750604080518082019091526000546001600160a01b0381168252600160a01b90046001600160601b031660208201525b602081015160009061271090610b6c906001600160601b031687612de0565b610b769190612df7565b915196919550909350505050565b610b8c611f72565b600f80546bffffffffffffffffffffffff19166001600160601b0392909216919091179055565b61081f8383836040518060200160405280600081525061123c565b60606000610bdb600c5490565b90506000610be8600d5490565b610bf29083612e19565b90506000808267ffffffffffffffff811115610c1057610c10612be5565b604051908082528060200260200182016040528015610c4957816020015b610c3661280f565b815260200190600190039081610c2e5790505b50905060005b84811015610a065760106000610c66836001612d51565b815260208101919091526040016000206002015460ff16151560011480610cba575060106000610c97836001612d51565b815260208101919091526040016000206002015460ff6101009091041615156001145b15610d91576000610ccc826001612d51565b60008181526010602090815260409182902082516101208101845281546001600160a01b039081168252600183015493820193909352600282015460ff808216151595830195909552610100908190049094161515606082015260038201546080820152600482015490921660a0830152600581015460c0830152600681015460e083015260070154918101919091528451919250908190859087908110610d7657610d76612d7d565b6020908102919091010152610d8c600186612d51565b945050505b80610d9b81612d64565b915050610c4f565b6000818152600460205260408120546001600160a01b03168061064b5760405162461bcd60e51b8152602060048201526018602482015277115490cdcc8c4e881a5b9d985b1a59081d1bdad95b88125160421b604482015260640161077e565b60006001600160a01b038216610e6d5760405162461bcd60e51b815260206004820152602960248201527f4552433732313a2061646472657373207a65726f206973206e6f7420612076616044820152683634b21037bbb732b960b91b606482015260840161077e565b506001600160a01b031660009081526005602052604090205490565b610e91611f72565b610e9b6000611fcc565b565b60606003805461066090612d01565b60008181526010602052604081206002810154909161010090910460ff1615159003610eeb5760405163b395a99360e01b815260040160405180910390fd5b80600301544210610f0e576040516265f4a760e01b815260040160405180910390fd5b80600501543411610f32576040516369060b4760e11b815260040160405180910390fd5b6004810180546005830180546001600160a01b0319831633179093553490556001600160a01b0316908115611018576000826001600160a01b03168260405160006040518083038185875af1925050503d8060008114610fae576040519150601f19603f3d011682016040523d82523d6000602084013e610fb3565b606091505b50509050806110165760405162461bcd60e51b815260206004820152602960248201527f7472616e66657220746f2070726576696f757320686967686573742062696464604482015268195c8819985a5b195960ba1b606482015260840161077e565b505b336001600160a01b03168360070154857f2f64d2cb403e5400058bb11e0b51e45253269a57850325ee6c2f00164331ad933460405161105991815260200190565b60405180910390a450505050565b61107233838361201e565b5050565b600085815260106020526040902080546001600160a01b031633146110ae576040516349fd4ea960e11b815260040160405180910390fd5b600281015460ff16156110d4576040516327a7e1bd60e11b815260040160405180910390fd5b6002810154610100900460ff16156110ff5760405163b395a99360e01b815260040160405180910390fd5b8380156111095750825b15611127576040516327a7e1bd60e11b815260040160405180910390fd5b600e54341461114957604051637ba2c79360e01b815260040160405180910390fd5b8280156111565750428211155b1561117457604051632110891b60e21b815260040160405180910390fd5b600083611182576000611184565b825b9050611190600d6120ec565b84806111995750835b156111ad576111ad33308460070154611e0e565b6001820186905560028201805461ffff191686151561ff0019161761010086151502179055600382018190556004820180546001600160a01b0319169055600060058301556007820154604080513381526020810189905289917f69b9fcd8da8e5d514a19f16988bab90644be57cb6e146a17ff0e3704244598eb91015b60405180910390a350505050505050565b6112463383611daf565b6112625760405162461bcd60e51b815260040161077e90612d93565b61126e84848484612143565b50505050565b60008181526010602052604081206002810154909161010090910460ff16151590036112b35760405163b395a99360e01b815260040160405180910390fd5b80600301544210156112d857604051633d9ae46f60e11b815260040160405180910390fd5b80546001600160a01b03163314611302576040516349fd4ea960e11b815260040160405180910390fd5b60048101546001600160a01b031661133f5760028101805461ff0019169055805460078201546110729130916001600160a01b0390911690611e0e565b60048101546005820154600783015483546001600160a01b039384166001600160a01b031982168117865560028601805461ff0019169055600d80546001019055931661138d308584611e0e565b60008061139a8486610ad8565b909250905060006113ab8287612e19565b90506000836001600160a01b03168360405160006040518083038185875af1925050503d80600081146113fa576040519150601f19603f3d011682016040523d82523d6000602084013e6113ff565b606091505b505090508061144c5760405162461bcd60e51b81526020600482015260196024820152781d1c985b99995c881d1bc818dc99585d1bdc8819985a5b1959603a1b604482015260640161077e565b6000856001600160a01b03168360405160006040518083038185875af1925050503d8060008114611499576040519150601f19603f3d011682016040523d82523d6000602084013e61149e565b606091505b50509050806114e95760405162461bcd60e51b81526020600482015260176024820152761d1c985b99995c881d1bc81bdddb995c8819985a5b1959604a1b604482015260640161077e565b8954604080516001600160a01b038c81168252602082018c90529092169189918e917f38db19f068f93273d85cd20e1d053f988c92771a90b7055a5d5cbeb9b6e90918910160405180910390a45050505050505050505050565b61154b612176565b60008181526010602052604090206001810154600782015482546001600160a01b031634831461158e576040516369c5b8bf60e01b815260040160405180910390fd5b600284015460ff1615156000036115b85760405163576d276360e11b815260040160405180910390fd5b6002840154610100900460ff16156115e35760405163b395a99360e01b815260040160405180910390fd5b83546001600160a01b0319163317845560028401805460ff1916905561160d600d80546001019055565b60008061161a8486610ad8565b9092509050600061162b8234612e19565b90506000846001600160a01b03168260405160006040518083038185875af1925050503d806000811461167a576040519150601f19603f3d011682016040523d82523d6000602084013e61167f565b606091505b50509050806116ca5760405162461bcd60e51b81526020600482015260176024820152761d1c985b99995c881d1bc81bdddb995c8819985a5b1959604a1b604482015260640161077e565b6000846001600160a01b03168460405160006040518083038185875af1925050503d8060008114611717576040519150601f19603f3d011682016040523d82523d6000602084013e61171c565b606091505b50509050806117695760405162461bcd60e51b81526020600482015260196024820152781d1c985b99995c881d1bc818dc99585d1bdc8819985a5b1959603a1b604482015260640161077e565b611774303389611e0e565b604080516001600160a01b038816815233602082015290810189905287908b907f458478e87af2f8355f5200460431fb85259efefed716e75b487251ae55fe04e09060600160405180910390a35050505050505050506117d46001600a55565b50565b606061064b826121cf565b6001600160a01b03918216600090815260076020908152604080832093909416825291909152205460ff1690565b611818611f72565b6001600160a01b03811661187d5760405162461bcd60e51b815260206004820152602660248201527f4f776e61626c653a206e6577206f776e657220697320746865207a65726f206160448201526564647265737360d01b606482015260840161077e565b6117d481611fcc565b61188e611f72565b600e55565b600061064b826122d7565b6000818152600460205260409020546001600160a01b03166117d45760405162461bcd60e51b8152602060048201526018602482015277115490cdcc8c4e881a5b9d985b1a59081d1bdad95b88125160421b604482015260640161077e565b600081815260066020526040902080546001600160a01b0319166001600160a01b038416908117909155819061193282610da3565b6001600160a01b03167f8c5be1e5ebec7d5bd14f71427d1e84f3dd0314c0f7b2291e5b200ac8c7c3b92560405160405180910390a45050565b6110728282604051806020016040528060008152506122fc565b6000828152600460205260409020546001600160a01b0316611a005760405162461bcd60e51b815260206004820152602e60248201527f45524337323155524953746f726167653a2055524920736574206f66206e6f6e60448201526d32bc34b9ba32b73a103a37b5b2b760911b606482015260840161077e565b6000828152600860205260409020611a188282612e7a565b506040518281527ff8e1a15aba9398e019f0b49df1a4fde98ee17ae345cb5f6b5e2c27f5033e8ce79060200160405180910390a15050565b6127106001600160601b0382161115611abe5760405162461bcd60e51b815260206004820152602a60248201527f455243323938313a20726f79616c7479206665652077696c6c206578636565646044820152692073616c65507269636560b01b606482015260840161077e565b6001600160a01b038216611b145760405162461bcd60e51b815260206004820152601b60248201527f455243323938313a20496e76616c696420706172616d65746572730000000000604482015260640161077e565b6040805180820182526001600160a01b0393841681526001600160601b0392831660208083019182526000968752600190529190942093519051909116600160a01b029116179055565b60008511611b7f576040516371d7989960e11b815260040160405180910390fd5b600e543414611ba157604051637ba2c79360e01b815260040160405180910390fd5b818015611bae5750428111155b15611bcc57604051632110891b60e21b815260040160405180910390fd5b828015611bd65750815b15611bf4576040516327a7e1bd60e11b815260040160405180910390fd5b600082611c02576000611c04565b815b9050611c14600c80546001019055565b6000611c1f600c5490565b9050604051806101200160405280336001600160a01b031681526020018881526020018615158152602001851515815260200183815260200160006001600160a01b0316815260200160008152602001828152602001878152506010600083815260200190815260200160002060008201518160000160006101000a8154816001600160a01b0302191690836001600160a01b031602179055506020820151816001015560408201518160020160006101000a81548160ff02191690831515021790555060608201518160020160016101000a81548160ff0219169083151502179055506080820151816003015560a08201518160040160006101000a8154816001600160a01b0302191690836001600160a01b0316021790555060c0820151816005015560e0820151816006015561010082015181600701559050508480611d655750835b15611d7557611d75333088611e0e565b6040805133815260208101899052879183917fdc9d79b0fe2198ceff7f76af9e05e2eacb3af07f0d4c913397475ab8bac771b8910161122b565b600080611dbb83610da3565b9050806001600160a01b0316846001600160a01b03161480611de25750611de281856117e2565b80611e065750836001600160a01b0316611dfb846106e3565b6001600160a01b0316145b949350505050565b826001600160a01b0316611e2182610da3565b6001600160a01b031614611e475760405162461bcd60e51b815260040161077e90612f3a565b6001600160a01b038216611ea95760405162461bcd60e51b8152602060048201526024808201527f4552433732313a207472616e7366657220746f20746865207a65726f206164646044820152637265737360e01b606482015260840161077e565b826001600160a01b0316611ebc82610da3565b6001600160a01b031614611ee25760405162461bcd60e51b815260040161077e90612f3a565b600081815260066020908152604080832080546001600160a01b03199081169091556001600160a01b0387811680865260058552838620805460001901905590871680865283862080546001019055868652600490945282852080549092168417909155905184937fddf252ad1be2c89b69c2b068fc378daa952ba7f163c4a11628f55a4df523b3ef91a4505050565b6009546001600160a01b03163314610e9b5760405162461bcd60e51b815260206004820181905260248201527f4f776e61626c653a2063616c6c6572206973206e6f7420746865206f776e6572604482015260640161077e565b600980546001600160a01b038381166001600160a01b0319831681179093556040519116919082907f8be0079c531659141344cd1fd0a4f28419497f9722a3daafe3b4186f6b6457e090600090a35050565b816001600160a01b0316836001600160a01b03160361207f5760405162461bcd60e51b815260206004820152601960248201527f4552433732313a20617070726f766520746f2063616c6c657200000000000000604482015260640161077e565b6001600160a01b03838116600081815260076020908152604080832094871680845294825291829020805460ff191686151590811790915591519182527f17307eab39ab6107e8899845ad3d59bd9653f200f220920489ca2b5937696c31910160405180910390a3505050565b80548061213b5760405162461bcd60e51b815260206004820152601b60248201527f436f756e7465723a2064656372656d656e74206f766572666c6f770000000000604482015260640161077e565b600019019055565b61214e848484611e0e565b61215a8484848461232f565b61126e5760405162461bcd60e51b815260040161077e90612f7f565b6002600a54036121c85760405162461bcd60e51b815260206004820152601f60248201527f5265656e7472616e637947756172643a207265656e7472616e742063616c6c00604482015260640161077e565b6002600a55565b60606121da8261189e565b600082815260086020526040812080546121f390612d01565b80601f016020809104026020016040519081016040528092919081815260200182805461221f90612d01565b801561226c5780601f106122415761010080835404028352916020019161226c565b820191906000526020600020905b81548152906001019060200180831161224f57829003601f168201915b50505050509050600061228a60408051602081019091526000815290565b9050805160000361229c575092915050565b8151156122ce5780826040516020016122b6929190612fd1565b60405160208183030381529060405292505050919050565b611e0684612430565b60006001600160e01b03198216632483248360e11b148061064b575061064b826124a4565b61230683836124e4565b612313600084848461232f565b61081f5760405162461bcd60e51b815260040161077e90612f7f565b60006001600160a01b0384163b1561242557604051630a85bd0160e11b81526001600160a01b0385169063150b7a0290612373903390899088908890600401613000565b6020604051808303816000875af19250505080156123ae575060408051601f3d908101601f191682019092526123ab9181019061303d565b60015b61240b573d8080156123dc576040519150601f19603f3d011682016040523d82523d6000602084013e6123e1565b606091505b5080516000036124035760405162461bcd60e51b815260040161077e90612f7f565b805181602001fd5b6001600160e01b031916630a85bd0160e11b149050611e06565b506001949350505050565b606061243b8261189e565b600061245260408051602081019091526000815290565b90506000815111612472576040518060200160405280600081525061249d565b8061247c8461266f565b60405160200161248d929190612fd1565b6040516020818303038152906040525b9392505050565b60006001600160e01b031982166380ac58cd60e01b14806124d557506001600160e01b03198216635b5e139f60e01b145b8061064b575061064b82612702565b6001600160a01b03821661253a5760405162461bcd60e51b815260206004820181905260248201527f4552433732313a206d696e7420746f20746865207a65726f2061646472657373604482015260640161077e565b6000818152600460205260409020546001600160a01b03161561259f5760405162461bcd60e51b815260206004820152601c60248201527f4552433732313a20746f6b656e20616c7265616479206d696e74656400000000604482015260640161077e565b6000818152600460205260409020546001600160a01b0316156126045760405162461bcd60e51b815260206004820152601c60248201527f4552433732313a20746f6b656e20616c7265616479206d696e74656400000000604482015260640161077e565b6001600160a01b038216600081815260056020908152604080832080546001019055848352600490915280822080546001600160a01b0319168417905551839291907fddf252ad1be2c89b69c2b068fc378daa952ba7f163c4a11628f55a4df523b3ef908290a45050565b6060600061267c83612737565b600101905060008167ffffffffffffffff81111561269c5761269c612be5565b6040519080825280601f01601f1916602001820160405280156126c6576020820181803683370190505b5090508181016020015b600019016f181899199a1a9b1b9c1cb0b131b232b360811b600a86061a8153600a85049450846126d057509392505050565b60006001600160e01b0319821663152a902d60e11b148061064b57506301ffc9a760e01b6001600160e01b031983161461064b565b60008072184f03e93ff9f4daa797ed6e38ed64bf6a1f0160401b83106127765772184f03e93ff9f4daa797ed6e38ed64bf6a1f0160401b830492506040015b6d04ee2d6d415b85acef810000000083106127a2576d04ee2d6d415b85acef8100000000830492506020015b662386f26fc1000083106127c057662386f26fc10000830492506010015b6305f5e10083106127d8576305f5e100830492506008015b61271083106127ec57612710830492506004015b606483106127fe576064830492506002015b600a831061064b5760010192915050565b60405180610120016040528060006001600160a01b03168152602001600081526020016000151581526020016000151581526020016000815260200160006001600160a01b031681526020016000815260200160008152602001600081525090565b6001600160e01b0319811681146117d457600080fd5b60006020828403121561289957600080fd5b813561249d81612871565b60005b838110156128bf5781810151838201526020016128a7565b50506000910152565b600081518084526128e08160208601602086016128a4565b601f01601f19169290920160200192915050565b60208152600061249d60208301846128c8565b60006020828403121561291957600080fd5b5035919050565b80356001600160a01b038116811461293757600080fd5b919050565b6000806040838503121561294f57600080fd5b61295883612920565b946020939093013593505050565b602080825282518282018190526000919060409081850190868401855b82811015612a0357815180516001600160a01b0390811686528782015188870152868201511515878701526060808301511515908701526080808301519087015260a0808301519091169086015260c0808201519086015260e0808201519086015261010090810151908501526101209093019290850190600101612983565b5091979650505050505050565b8035801515811461293757600080fd5b60008060008060008060a08789031215612a3957600080fd5b863567ffffffffffffffff80821115612a5157600080fd5b818901915089601f830112612a6557600080fd5b813581811115612a7457600080fd5b8a6020828501011115612a8657600080fd5b602092830198509650508701359350612aa160408801612a10565b9250612aaf60608801612a10565b9150608087013590509295509295509295565b600080600060608486031215612ad757600080fd5b612ae084612920565b9250612aee60208501612920565b9150604084013590509250925092565b60008060408385031215612b1157600080fd5b50508035926020909101359150565b600060208284031215612b3257600080fd5b81356001600160601b038116811461249d57600080fd5b600060208284031215612b5b57600080fd5b61249d82612920565b60008060408385031215612b7757600080fd5b612b8083612920565b9150612b8e60208401612a10565b90509250929050565b600080600080600060a08688031215612baf57600080fd5b8535945060208601359350612bc660408701612a10565b9250612bd460608701612a10565b949793965091946080013592915050565b634e487b7160e01b600052604160045260246000fd5b60008060008060808587031215612c1157600080fd5b612c1a85612920565b9350612c2860208601612920565b925060408501359150606085013567ffffffffffffffff80821115612c4c57600080fd5b818701915087601f830112612c6057600080fd5b813581811115612c7257612c72612be5565b604051601f8201601f19908116603f01168101908382118183101715612c9a57612c9a612be5565b816040528281528a6020848701011115612cb357600080fd5b82602086016020830137600060208483010152809550505050505092959194509250565b60008060408385031215612cea57600080fd5b612cf383612920565b9150612b8e60208401612920565b600181811c90821680612d1557607f821691505b602082108103612d3557634e487b7160e01b600052602260045260246000fd5b50919050565b634e487b7160e01b600052601160045260246000fd5b8082018082111561064b5761064b612d3b565b600060018201612d7657612d76612d3b565b5060010190565b634e487b7160e01b600052603260045260246000fd5b6020808252602d908201527f4552433732313a2063616c6c6572206973206e6f7420746f6b656e206f776e6560408201526c1c881bdc88185c1c1c9bdd9959609a1b606082015260800190565b808202811582820484141761064b5761064b612d3b565b600082612e1457634e487b7160e01b600052601260045260246000fd5b500490565b8181038181111561064b5761064b612d3b565b601f82111561081f57600081815260208120601f850160051c81016020861015612e535750805b601f850160051c820191505b81811015612e7257828155600101612e5f565b505050505050565b815167ffffffffffffffff811115612e9457612e94612be5565b612ea881612ea28454612d01565b84612e2c565b602080601f831160018114612edd5760008415612ec55750858301515b600019600386901b1c1916600185901b178555612e72565b600085815260208120601f198616915b82811015612f0c57888601518255948401946001909101908401612eed565b5085821015612f2a5787850151600019600388901b60f8161c191681555b5050505050600190811b01905550565b60208082526025908201527f4552433732313a207472616e736665722066726f6d20696e636f72726563742060408201526437bbb732b960d91b606082015260800190565b60208082526032908201527f4552433732313a207472616e7366657220746f206e6f6e20455243373231526560408201527131b2b4bb32b91034b6b83632b6b2b73a32b960711b606082015260800190565b60008351612fe38184602088016128a4565b835190830190612ff78183602088016128a4565b01949350505050565b6001600160a01b0385811682528416602082015260408101839052608060608201819052600090613033908301846128c8565b9695505050505050565b60006020828403121561304f57600080fd5b815161249d8161287156fea26469706673582212206e1ff44508b8258b447acef4c07ce4cdd41d58679bbe933f0a7c5c758a7826b964736f6c63430008120033",
  "linkReferences": {},
  "deployedLinkReferences": {}
}